:020000021000EC
:10C0000000800020A11F0200E91F0200EB1F0200B8
:10C010000000000000000000000000000000000020
:10C02000000000000000000000000000ED1F020002
:10C030000000000000000000EF1F0200F11F0200DE
:10C04000F31F0200F31F0200A9CD0100F31F02003D
:10C05000F31F020000000000B1D10100F31F020035
:10C06000F31F0200F31F0200F31F0200F31F020080
:10C07000F31F0200F31F0200F31F0200F31F020070
:10C08000F31F02003DC40100F31F0200F31F020072
:10C0900021C50100F31F02006D1F0200F31F020003
:10C0A000F31F0200F31F0200000000000000000068
:10C0B0000000000000000000000000000000000080
:10C0C000164B002B00D1144B9D46402292029A1A27
:10C0D000924600218B460F461348144A121A00F06C
:10C0E00067F80F4B002B00D098470E4B002B00D069
:10C0F00098470020002104000D000D48002802D0C0
:10C100000C4800E000BF00F02DF82000290003F0EB
:10C1100009FB00F011F8C046000008000080002074
:10C1200000000000000000006C2800207830002093
:10C130000000000000000000084B10B5041C002B9C
:10C1400002D0002100E000BF054B1868836A002B75
:10C1500000D09847201C00F033F8C04600000000D3
:10C16000542302000E4B70B500251E1C0D4CE41A22
:10C17000A410A54204D0AB00F35898470135F8E766
:10C1800006F0DAF8084B00251E1C084CE41AA4102F
:10C19000A54204D0AB00F35898470135F8E770BDCD
:10C1A0006C2800206C2800206C2800206C280020BF
:10C1B000031C8218934202D019700133FAE77047CA
:10C1C000FEE7C046F8B54D465F4656464446F0B4D5
:10C1D000224B1978994600292AD0214B00259846F0
:10C1E000204B214F01269A4603E00135EDB28D42E6
:10C1F0001ED243461B68321C9C46EC0064442078E7
:10C200003B6882401342F0D093433B6000F0C6FF8E
:10C21000331C22785146934009680B40011C914021
:10C220008B420BD04B4601351978EDB28D42E0D3ED
:10C230003CBC90469946A246AB46F8BD616863781F
:10C240008B460029EED0591E4C424C41211A4B42DC
:10C250004B41101CD9B2D847E4E7C04674280020EF
:10C26000702800207828002080280020F8B5124D82
:10C27000071C286800F024FD002807D10124BC40D9
:10C280000E4E3368234202D0A3433360F8BD381CFE
:10C2900000F084FF0A4A136800280BD02343136080
:10C2A000336828681C43074B00221968346000F08B
:10C2B00079FCEBE7A343F2E77C28002080280020EC
:10C2C000782800206C280020F0B54F464646C0B4C0
:10C2D000141C071C83B00E1C0720042A04D803B0CA
:10C2E0000CBC90469946F0BD00F042FE00282FD0CD
:10C2F0001A4B1B4A1F601B4B751E1E701A4BEDB26A
:10C300001C6000231360194A1360002E1AD0184BCA
:10C3100001AC994603230026984600E01D1C4246C6
:10C32000EB00FB182270A670E6709A78187862709D
:10C33000211C4A4600F026FE0028D0D16B1EDBB23D
:10C34000002DEBD100210B4A0B4800F0F7FBC6E7AC
:10C3500000F0D6FD0028CBD0C1E7C04670280020F1
:10C3600078280020742800206C28002080280020D5
:10C370006DC20100C5C101007C28002070B5094DC7
:10C380002B78002B0BD00024074E3268E300985C1A
:10C39000012100F0AFFE2B780134A342F5D8002034
:10C3A00070BDC0467428002070280020BFF34F8F56
:10C3B000024A034BDA60BFF34F8FFEE70400FA0531
:10C3C00000ED00E080218023184A8902D1508022AC
:10C3D000D221174B520289005A5040395A5001223B
:10C3E0002F205A600138C046C046C046C046C046ED
:10C3F000C046C046C046C046C046C046C046F1D151
:10C400009A6000230B4A2F2013600138C046C046B3
:10C41000C046C046C046C046C046C046C046C046EC
:10C42000C046C046F1D1044A1370704700E100E0F5
:10C430000010014084280020AC280020A021F0B585
:10C44000002247462C4B490080B45A5004315A50C0
:10C4500004315A5004315A504C395A5004315A5010
:10C46000264A17687A1C38D0254A00259B58254A49
:10C47000254E14681C1B254B2402240A984601E013
:10C480007B1C1BD03268FB009446DB199B00634485
:10C490005A68A24212D8A41AAD181F6A9A69D969BB
:10C4A00043461B68002B1BD0101C98470028E7D080
:10C4B00000210022FFF77AFF7B1CE3D1144B1549C2
:10C4C0001A780B789A420ED0134A9B009D50802117
:10C4D0008023124A49035B00D15004BC9046F0BD52
:10C4E000081C9047CCE70132D3B2022B01D00B706D
:10C4F000EAE700230B70E7E7001001409C280020CA
:10C5000004050000842800208C28002088280020B2
:10C510009828002099280020A428002000E100E0AD
:10C52000F0B55F4656464D464446F0B4CA4BCB4A3A
:10C530001B68CB498DB0079309781378994200D1D5
:10C5400056E20133DBB2022B00D11CE21370C54A64
:10C550009B009B58079A9C46624406931302BE4A6E
:10C560001B0A136001230893BF4B00251B681E1C88
:10C570000B93BE4B1B78191C0A1C0393BC4B013A4E
:10C580001B68D2B20593BB4B02911868B24B029262
:10C590001B680A93B84B1B780993331CFF2A3DD0C4
:10C5A0000599D200894691444A464946127849780D
:10C5B000B44601904E468A4228D077685400A418A9
:10C5C000B8460132B778D2B2BF1A781E8741E4006C
:10C5D0007F4244443A402778022F00D1DBE0032F0A
:10C5E00000D0D5E06046013000D1D1E0634601982B
:10C5F000D900CB189B00C3181D751B6A591CF7D1B5
:10C600001F1C01907178BC468A42D6D1029A0198CB
:10C61000013AD2B266460292FF2AC1D1924A0A99E1
:10C6200013608D4A2424116069460919924A0978D9
:10C6300005961170089A002A00D0A6E10B9B059F71
:10C640009B1B5A1E9341DBB2069301235B429C461F
:10C65000874B1B680493874B1E687F4B1B689B4668
:10C66000814B1B680193844B1B78029300239946EE
:10C67000039B013BDBB20393FF2B00D100E1049A43
:10C68000DB0092469A446346013341D06346DC00A6
:10C690006444A4003419236AE0469C46A268E16819
:10C6A0005B467648D31A1B021B0A834267D85B1885
:10C6B00063604B46A360E3600123237501235B4263
:10C6C00023627B1C00D1BDE0FB00DB199B00F3184B
:10C6D000606859683D1C884209D8A5E0D3009B18C2
:10C6E0009B00F3185968814200D3A8E0151C1A6A10
:10C6F000401A531CF2D1EB005D19434622623A1CEA
:10C70000AD00751960602B62171C63460133BDD103
:10C71000534652461B7852789A42A9D052465268E4
:10C72000580090465246C0180133DBB2137092781D
:10C73000C00040449A4200D189E043683A1C9846C0
:10C740000378012BE0D14346DC004444A4003419B3
:10C75000237D002BD8D18268A260C168E1600569A1
:10C7600025614069E0610298002899D0A360002209
:10C770005B464248D31A1B021B0A834297D95B4689
:10C780009A1A1202120A8A4256D2891A616090E7F6
:10C790006746BC4638E76468E000071980460198A0
:10C7A000BF008146BA46CA445046007D674681466E
:10C7B000002800D127E76146013114D0644500D13B
:10C7C000CFE0049201989B4602E09C4210D01F1CCF
:10C7D000F900C919890041180B6A5A1CF5D15B464A
:10C7E0006746049A019051460D757178BC460BE777
:10C7F000049A01905B46BC4200D19DE044448046CF
:10C800006746A40044446068246A84460C62611C44
:10C81000E9D00198E100804609198900414448683F
:10C820001F1C60444860DEE7091A596042464346CF
:10C8300027620193171C68E74B46636039E7091AC2
:10C84000596058E7434642460193171C5DE753463B
:10C850004A461A7071E7C0468428002098280020B4
:10C8600099280020A42800209C280020902800203F
:10C87000942800208C280020A0280020FEFF7F00A4
:10C88000644B019A1A60059B9F4200D16DE07B1CAE
:10C8900000D1BBE0604BFA00D7191B68BF00DB1961
:10C8A0005C685E485E4B5F4DC1585F4B2E781B68DD
:10C8B000CA1A1202120A03329046002E1FD1802695
:10C8C000D1277602BF00C651403FC651C022802703
:10C8D000564EBF025200B7503760012606602F2027
:10C8E0000138C046C046C046C046C046C046C046E5
:10C8F000C046C046C046C046C046F1D12E70424632
:10C90000A24200D2221CA820D2181202130A434AC3
:10C91000C000135042485B1A12581B02521A1202EE
:10C92000120A03321B0A9A4223D9802180233F4AEC
:10C9300089025B00D1501CE06346DB0063448446FF
:10C940000C1C9B0063441B6A1F1C581C00D05AE738
:10C950000127324887604846099000201F1C0A9032
:10C9600051E7544653465146EDE7069B002B00D055
:10C970008DE700232E4A13700DB03CBC90469946BB
:10C98000A246AB46F0BD0023E0E5234A0024176829
:10C99000012252429446002260469046721C1FD0EB
:10C9A000F20092199200BA185168069DA94223D844
:10C9B0006B1A069343465360434664181169137516
:10C9C0008C46136A002908D0079910626118090281
:10C9D000090A91606146301CD1601E1C721CDFD1B7
:10C9E0000C4A84461360012305960693371C2FE6F4
:10C9F000002306930893B7E584460648491B036065
:10CA00000123059651600693371C21E6FFF7DAFCF7
:10CA1000AFE7C0469C2800208C2800200010014071
:10CA200004050000AC2800208428002000E100E07C
:10CA3000A0280020F8B51E1C051C0F1C141C072084
:10CA4000B30700D0F8BD002EFCD0FFF7BBFC2E4B87
:10CA5000069A1A602D4B1F702D4B1E60002F51D06F
:10CA6000331C0022F900C819800030181A701A759A
:10CA700024338342FAD1C919890073180321181C81
:10CA8000244A1830117061000919234AC9005860FE
:10CA9000401813604118002259610121D86080209C
:10CAA0009C709C729C74C5241A705A701A725A72C7
:10CAB0001A745A74194B49421960194B40031A7081
:10CAC000184BA4001A70184B8132FF3298501A5933
:10CAD0000131FF318A433F390A431A51A1221860BC
:10CAE000C4201249D2008D5080001C58104A2240A8
:10CAF000C024240222431A500E4B0020CA580E4B69
:10CB00001A609FE70021B6E7882800209A280020B5
:10CB10008C28002090280020942800209C280020A9
:10CB2000982800209928002000E100E00010014032
:10CB3000FF00FFFF0405000084280020F0B5174B1C
:10CB400094461E68002E1DD0002A19D0002817D048
:10CB5000134B1F78002F11D03378002B14D0341CC6
:10CB60000023243407E0261C2434251C243D2D7882
:10CB70001A1C002D09D00133BB42F4DB0420F0BDA8
:10CB80000720FCE70820FAE7002201233370634600
:10CB90007170B36102600020F1E7C0468C2800206C
:10CBA0009A280020F0B5474680B43D4B1C68002C05
:10CBB00047D03C4B1D780723854203D8181C04BC82
:10CBC0009046F0BD0429F9D9C3001B189B00E41856
:10CBD00025780823012DF1D163780024A046012B8C
:10CBE00031D0314B10245B68DB05DB0D2FD12F4B8F
:10CBF0001D682D196B78AC785E1C341B671EBC4118
:10CC0000644226402C78B4421FD05C00E3186C6864
:10CC1000DB00E4180423002CD0D0033B23706060B9
:10CC2000234B2448C358E160A3604346802123611D
:10CC300080236261204A5B0049036E70D15000235B
:10CC4000BCE70823BAE78846CBE70423B6E7103BE6
:10CC5000DDB26CB2002C13DBA408174DC034A40065
:10CC6000645903252B40DB00DC4023069B0FDBB21D
:10CC70000024012BBBD00834032BB8D00834B6E70E
:10CC80000F230E4C2B40A446083B9B089B0063449B
:10CC90005C6803232B40DB00DC40E3B29B09E6E742
:10CCA0008C2800209A28002000ED00E09428002025
:10CCB000040500000010014000E100E018ED00E074
:10CCC00030B5334B1A68002A34D0324B1978072319
:10CCD000814201D8181C30BDC3001B189B009A5C10
:10CCE0000823012AF6D12C4B0F325B68DB05DB0DE4
:10CCF00024D12A4B196889184B788A785C1CA21AAF
:10CD0000551EAA41524214400A78A24214D05A0039
:10CD1000D3184A68DB00D2180423002ADAD0023B79
:10CD2000137050604C7080211D4AFE334903D1506E
:10CD30000023CFE70823CDE70423CBE7103BD9B28C
:10CD40004AB2002A13DB92081549C03292005258A9
:10CD500003210B40DB00DA4013069B0FDBB20022FD
:10CD6000012BC6D00832032BC3D00832C1E70F23F2
:10CD70000C4A0B409446083B9B089B0063445A684E
:10CD800003230B40DB00DA40D3B29B09E6E7C04641
:10CD90008C2800209A28002000ED00E09428002034
:10CDA00000E100E018ED00E0842200B5304B5200B5
:10CDB000995883B0002905D0C12189005858042111
:10CDC000014239D18E222A4B52009958002904D0B1
:10CDD000C1218900595809061BD49222244B5200C4
:10CDE0009958002904D0C12189005958890501D4D6
:10CDF00003B000BD002199509021C9005A586846DF
:10CE00005A50022369460B701A4B01921B689847CF
:10CE1000EEE70020184998500A78D2B2002ADCD0F8
:10CE2000022A19D9032AD8D1023A0870DA605A6066
:10CE3000A022D2009850D0E700209850A322D20020
:10CE40009B580E4ADBB213806A461371094B11706E
:10CE50001B6868469847B5E70122DA600A70032329
:10CE60006A461370034B68461B689847B5E7C0468F
:10CE700000200040B0280020B428002060280020B6
:10CE8000F0B5002820DBFF271B4B03229C463B1CF0
:10CE90008408C026C0B20240D2009340A40064447B
:10CEA000B600A5599D438B013B409340191C294373
:10CEB000A1511F2318401E3B8340C022181C0E4B5B
:10CEC000520098501860F0BDFF260C4A0324944687
:10CED000321C0F23C0B20440E400A2400340083BD0
:10CEE0009B089B006344DD6995438A013240A24060
:10CEF000111C2943D961DCE700E100E000ED00E00E
:10CF000038B54925184C0820635D002B00D038BD8A
:10CF10004422FF21013BA3540132A1540132A35406
:10CF20000132A35463620132A362E3622363636349
:10CF3000A363E36323640238FE39A3542360636070
:10CF4000A360E36023616361A361E3612362FFF790
:10CF500097FF8021C123054A9B000906D150012378
:10CF600000206355D3E7C046B82800200060004089
:10CF70004923034AD05C431E9841C0B27047C04663
:10CF8000B8280020F0B5474680B4574C9046231887
:10CF900020331E7908257F2E03D8281C04BC904618
:10CFA000F0BDCD78AC46002D3CD02268013200D1D6
:10CFB0008DE004270026731C9D006259013239D090
:10CFC000B31C9F422CD99D006259013232D0F31C10
:10CFD0009F4225D99D00625901322BD0331DBB429F
:10CFE0001ED29D006259013224D0731D9F4217D971
:10CFF0009D00625901321DD0B31D9F4210D99D0082
:10D000006259013216D0F31D9F4209D99D00625921
:10D0100001320FD00836B74202D9236A013307D054
:10D020000425BAE72269013256D009270426C2E74F
:10D030000823202542462718DEB220373E71625170
:10D040006246002A02D1E3183C3318718B78002B1A
:10D0500015D1031CA0254A78C133FF3392009B00F1
:10D06000ED055A51CB78002B15D176B2A4193C347A
:10D070000B7822799B011343237100258DE7A022B1
:10D08000D2059446E025022783006344ED005A59F7
:10D09000BA435A51E6E7A22476B2144BB600F3180D
:10D0A000E4000A781D591249000229401951F8215B
:10D0B00049010840061CC0211004021C301C8902D2
:10D0C0001D590A40104328431851002565E70026E2
:10D0D0001E7143462360B9E704251D7143462E1C8B
:10D0E00023612B1CAFE7C046B82800200060004039
:10D0F000FFE0FCFFF0B5264D2C182034227953B206
:10D10000032B18DDEB183C331B799B09032B32D022
:10D11000012B39D0C025AD02A023DB059C46E023BE
:10D1200080006044DB00C4581A492140C150C258F5
:10D130002A43C250F0BD032AFCD81748A2278446D0
:10D1400001269A006244FF00D0593043D0511A1C86
:10D15000604600274032920092B217500029E9D071
:10D160000422A25692005259002AE3D0C1229E40C6
:10D1700092008650DEE7A223A022DB00D205D2581F
:10D18000012383401A42C5D18025AD02C4E7C046C1
:10D19000B8280020FFFFFCFF00600040A223A0226F
:10D1A000DB00D205D358C340181C01231840704738
:10D1B000F0B544465F4656464D46F0B4834A83B0C8
:10D1C00013680024012B65D0814B1A68012A6DD0A9
:10D1D000804B1A68012A00D178E07F4B1A68012A37
:10D1E00000D183E07D4B00261A68012A00D18EE031
:10D1F00023070BD0E30700D593E0A30700D59FE0FA
:10D20000630700D5AAE0230700D5B6E0002C06DBB3
:10D2100003B03CBC90469946A246AB46F0BDC02345
:10D220009846C0239B02002499466D4D231C44332D
:10D23000E95C4BB2013320D0C9B24346081C984385
:10D240002B1820331B795BB29B00EA58002A14D0BC
:10D25000A027FF05BC468B09019383009C44E0276F
:10D260006346FF00DB594F463B40012787401B0CBC
:10D270003E4206D1032B00D18BE00134052CD5D1E1
:10D28000C6E7022BF9D1019B032B00D199E001994C
:10D290009047F2E7C1215348890041580B4293D08F
:10D2A0004B4B14601A680134012A91D1C1224D49B7
:10D2B0009200895802220A4200D189E700211960B0
:10D2C000444B14431A68012A00D086E7C12245491D
:10D2D0009200895804220A4200D17EE70021196099
:10D2E0003D4B14431A68012A00D07BE7C1223D4917
:10D2F0009200895808220A4200D173E70021196080
:10D30000364B14431A680026012A00D070E71E60CD
:10D3100080231B061C43A022A223D205DB00D65883
:10D3200066E7A2232F4ADB00D058D1582C4DC00409
:10D3300089032B68C00E890F9847A30700D45FE7C5
:10D34000294B284A264DD058D158C00489036B6810
:10D35000C00E890F9847630700D454E7A323214ADE
:10D36000DB00D058D1581E4DC0048903AB68C00EF5
:10D37000890F9847230700D448E71A4A1B4B184DDA
:10D38000D058D158C0048903C00E890FEB68984764
:10D390003CE7019B032B00D079E780239B029A4650
:10D3A000E0216346C9005B589B465F46104B3B40FB
:10D3B00067467B507B5857461F433B1C67467B5054
:10D3C00065E7C0239B029A46EAE7C0460061004039
:10D3D00004610040086100400C6100407C61004035
:10D3E000B828002000600040140500001C05000063
:10D3F000FFFFFCFF29DF704728DF704730B583B09F
:10D40000002806D0112806D108230F4A11680B43C3
:10D41000136003B030BD021C0C4801788B005B1810
:10D420009B00C518281CE9686B694C0064182979B1
:10D43000074DA4002D680C300095064D6459A04797
:10D440000422054B1A70E4E7F42900200429002087
:10D45000002A0020D8290020F9290020F0B55F46D5
:10D460004D4644465646F0B45E4F85B03C785E4D1E
:10D47000012C00D188E0002C00D16DE0022C16D0E8
:10D48000032C0DD1594B1868FFF7B6FF021E07D0C9
:10D49000112800D080E00823554A11680B4313601F
:10D4A00005B03CBC90469946A246AB46F0BD504BF9
:10D4B00099461B6803932B789E00F3189B00EE1887
:10D4C0003369984680235B05196940460904090CB5
:10D4D0009B4604F08FFD454B824618605B461969F8
:10D4E0004346581EF3880904C018090C04F082FD55
:10D4F00082454CD00323039C9C434B461C603D4B10
:10D500001B68002B02D10233234262D000223A4B27
:10D510001A703A4B5869431C54D080235B05196933
:10D520000904090C04F066FD031C802252051069F1
:10D5300011690004013B000C09045843090C04F074
:10D5400059FDFFF759FF021EAAD0112824D1082344
:10D550001C434B461C60A3E7294B1C60294B1C60F5
:10D560006B78002B9CD02B789A00D3189B00ED1879
:10D57000EA88254B1A602B79032B27D0042B25D062
:10D58000012B00D08CE73B7000F000FC88E7012302
:10D59000039A9A431443B0E72B789800C018800090
:10D5A0002E18301C184DF3682D685C00E418317992
:10D5B00073690095154DA4000C306459A0470423ED
:10D5C0003B706DE780235B055B69AEE700F020F8F8
:10D5D00066E7094A50461370FFF70EFFFFF70EFF8C
:10D5E0005EE7C046F9290020042900200C2A00200B
:10D5F000F4290020082A0020F8290020001000103B
:10D60000042A0020D0290020002A0020D829002048
:10D61000F0B55F4656464D464446F0B45B4B5C4819
:10D620001A78802791008A1892009B18DD681E697D
:10D630006A00521992008218148950895268604316
:10D6400080469044DA881B89141C9946514B9246B7
:10D650009B4600235A467F05396983B009044C4430
:10D660001360090C301CA41904F04AFD002924D1D0
:10D670003B699BB29A4537D044456CD0032D33D0DB
:10D68000301C3969484489B204F03AFD424B89089C
:10D6900019603969201C0904090C04F031FD0029C6
:10D6A00032D102223D4B1A70FFF7D8FE03B03CBCCA
:10D6B00090469946A246AB46F0BD032D14D0301CCF
:10D6C000396948440904090C04F01AFD324B8908F1
:10D6D000196039694445E4D00904090C201C04F0A0
:10D6E0000FFD0029DDD00FE080235B051969301C98
:10D6F0000904090C04F07EFC0322294B1860274B17
:10D700001A70FFF7ABFED1E780256D0529692B69FB
:10D710006A4699464346D380D08889B204F06AFCB1
:10D720006A464B46A6B2D380071CD188301C04F051
:10D7300061FCBFB280B287421DD02C692969301CC0
:10D7400089B204F0DDFC5B462404240C89B2641A1F
:10D75000A4081C60A5E74B46002BC5D0032DC3D001
:10D76000301C3969484489B204F0CAFC0A4B890864
:10D7700019603B6995E7434624041B041A0C240CEA
:10D78000131B5A469B0813608BE7C04604290020F0
:10D79000D8290020D4290020082A0020F9290020B7
:10D7A0000C2A0020F8B546464F46C0B41D4D08ACC3
:10D7B00024886E78A44604240A2E2DD02C78A04606
:10D7C000A419092C00DD0A3C14277C432C19626142
:10D7D000221C20710C32B94681C981C2E3806346A4
:10D7E00023810024104B01361A786E70A24213D1A7
:10D7F00042464F465743ED190C4AE98811602A7991
:10D80000032A07D0042A05D0012A05D11A70FFF790
:10D8100025FE01E0FFF7FCFE201C0CBC904699465B
:10D82000F8BDC04604290020F9290020002A002064
:10D83000082170B50C1C244A82B013681C4009D022
:10D840008B431360214B224A1B789B009B589847BF
:10D8500002B070BD1F4D2B789800C3189B00EE18C6
:10D86000317904292AD0F268736950008218301C7B
:10D87000194E920036680C300096184E96590022C8
:10D88000B04702202A7893009B189B00EB181C716C
:10D89000DC80D8601C615C611C816B780132013BCB
:10D8A000D2B26B700A2A06D02A7000220C4B1A7072
:10D8B000FFF7D4FDCCE700232B70F6E70122084BDD
:10D8C0001A70FFF7CBFDC3E7F4290020F8290020E8
:10D8D0006C23020004290020002A0020D8290020FF
:10D8E000F929002030B5244B83B05869431C3ED041
:10D8F00080235B0519690904090C04F07BFB041CF7
:10D9000080235B051869196900041A69000C631EFD
:10D9100058431A4B09041B68090C92B292085943E8
:10D92000FFF768FD021E06D0112806D10823144A0D
:10D9300011680B43136003B030BD12490B78980097
:10D94000C01880000D18281CEB6829795C00E418C9
:10D950006B690D4DA4002D680C3000950B4D64597A
:10D96000A04704220A4B1A70FFF778FDE3E78023F3
:10D970005B055C69C4E7C046001000100C2A00205B
:10D98000F429002004290020002A0020D8290020A2
:10D99000F9290020802230B5520514692149240458
:10D9A000230C0C6883B0013C5C431F4B5869431C3B
:10D9B00035D011690904090C04F01CFB80235B05B8
:10D9C00019691A4B09040138090C41431A68201CD3
:10D9D000FFF710FD021E06D0112806D10823144AB5
:10D9E00011680B43136003B030BD12490B789800E7
:10D9F000C01880000D18281CEB6829795C00E41819
:10DA00006B690D4DA4002D680C3000950B4D6459C9
:10DA1000A04704220A4B1A70FFF720FDE3E7506984
:10DA2000CCE7C0460C2A002000100010082A002075
:10DA3000F429002004290020002A0020D8290020F1
:10DA4000F9290020082330B51E4D83B02C682342ED
:10DA500014D1A30702D501231C432C6002221A4BC8
:10DA60001A701A4B1868FFF7C7FC021E04D0112861
:10DA70000DD108231C432C6003B030BD9C43124BD6
:10DA8000134A1B782C609B009B589847F4E7114978
:10DA90000B789800C01880000D18281CEB682979B5
:10DAA0005C00E4186B690C4DA4002D680C300095E7
:10DAB0000A4D6459A0470422094B1A70FFF7CEFCA7
:10DAC000DAE7C046F4290020F82900200C2A0020BB
:10DAD0006C23020004290020002A0020D8290020FD
:10DAE000F9290020F0B58027274C7F052378396974
:10DAF0009A00D3189B00E3181A89DD881B69AD18BA
:10DB0000ED18090483B0090C281C04F0F9FA1F4B26
:10DB10000E1C5869431C35D039690904090C04F0FE
:10DB200069FA80235B05196901380904090C41432E
:10DB3000174B89191A68281CFFF75CFC021E06D0D7
:10DB4000112806D10823134A11680B43136003B050
:10DB5000F0BD23789800C01880002618301C0E4CA9
:10DB6000F36824685D003179ED18736900940B4CFB
:10DB7000AD000C302C59A0470422094B1A70FFF756
:10DB80006DFCE4E77869CCE7042900200010001060
:10DB9000D4290020F4290020002A0020D8290020C0
:10DBA000F929002030B5154B83B01868FFF724FC25
:10DBB000021E06D0112806D10823114A11680B4312
:10DBC000136003B030BD0F490B789800C018800077
:10DBD0000D18281CEB6829795C00E4186B690A4D64
:10DBE000A4002D680C300095084D6459A04704220C
:10DBF000074B1A70FFF732FCE3E7C0460C2A0020FF
:10DC0000F429002004290020002A0020D82900201F
:10DC1000F9290020082370B52A4D82B02C682342D0
:10DC200009D09C43284B294A1B782C609B009B58A9
:10DC3000984702B070BD0122234B1A70244B5869DB
:10DC4000431C3BD080235B0519690904090C04F0CF
:10DC5000D1F9061C80235B051869196900041A694B
:10DC6000000C731E58431B4B09041B68090C92B22D
:10DC700092085943FFF7BEFB021EDAD0112803D1E8
:10DC800008231C432C60D4E713490B789800C01874
:10DC900080000D18281CEB6829795C00E4186B697A
:10DCA0000E4DA4002D680C3000950D4D6459A04711
:10DCB00004220C4B1A70FFF7D1FBBAE780235B05F7
:10DCC0005E69C7E7F4290020F82900206C230200D0
:10DCD000001000100C2A002004290020002A002037
:10DCE000D8290020F929002030B5224B83B058698B
:10DCF000431C3AD080235B0519690904090C04F020
:10DD000079F9031C80225205106911690004013B56
:10DD1000000C09045843090C04F06CF9FFF76CFB84
:10DD2000021E06D0112806D10823134A11680B439E
:10DD3000136003B030BD11490B789800C018800003
:10DD40000D18281CEB6829795C00E4186B690C4DF0
:10DD5000A4002D680C3000950A4D6459A047042298
:10DD6000094B1A70FFF77AFBE3E780235B055B69D9
:10DD7000C8E7C04600100010F42900200429002044
:10DD8000002A0020D8290020F9290020F0B580279A
:10DD9000404D7F052C783969A60033199B00EB189C
:10DDA000DA8889B283B08A4218D8196918898C46F2
:10DDB000920860445969FFF71DFB021E06D0112826
:10DDC0002DD10823344A11680B4313603419A40081
:10DDD0002C19E288314B1A6003B0F0BD196938691B
:10DDE0008C460004000C121A18893C695969604479
:10DDF00080188918A2B29208FFF7FCFA021E06D01A
:10DE0000112827D10823244A11680B43136080236B
:10DE10005B051B69214A1B041B0C1360DCE72B7894
:10DE20009800C01880002918CB68081C5F00FF18F4
:10DE30000B79BF009C464B6919490C300968009169
:10DE400018497F586146B8470422174B1A70FFF7EC
:10DE500005FBBBE72B789800C01880002E18301CFB
:10DE60000F4DF3682D685C003179E41873690095F3
:10DE70000C4DA4000C306459A04704220A4B1A70C0
:10DE8000FFF7ECFA80235B051B69044A1B041B0C9B
:10DE90001360A1E704290020F4290020D0290020E4
:10DEA000002A0020D8290020F92900200823F0B5F5
:10DEB0004D4644465F4656461A1CF0B4774D85B031
:10DEC0002C68224091465FD1754F3E78B300039392
:10DED0009B199B00FB181A69511EDA881B898A1846
:10DEE000D318029380235B059B4619696D4B1B6811
:10DEF0009846002B57D16C4B1B689A4680235B05D4
:10DF0000196902980904090C04F074F8824500D2DA
:10DF100085E0434600D17AE0002B00D079E0039BF6
:10DF20009C466644B600BC192179042900D1AFE0B3
:10DF3000201CE3680C305A00D21863695B4C9200D5
:10DF4000246800945A4C14590022A04741460220EC
:10DF50003A7893009B189B00FB181971D8604146D2
:10DF60004046D9801861586118817B780132013BA5
:10DF7000D2B27B700A2A00D17BE03A7000224D4B6E
:10DF80001A70FFF76BFA07E09C434B4B4B4A1B7828
:10DF90002C609B009B58984705B03CBC9046994626
:10DFA000A246AB46F0BD404B09041B68090C029821
:10DFB0009A4604F01FF85045A0D14A46404B1A60DB
:10DFC00001234A4623432B603B4B1A703D4B586953
:10DFD000431C51D05B4619690904090C04F00AF886
:10DFE000031C80225205106911690004013B000CDA
:10DFF00009045843090C03F0FDFFFFF7FDF9021E69
:10E00000CAD011283BD109231C432C60C4E7002B44
:10E0100005D00322284B1A70FFF764FDBCE70022ED
:10E02000274B50461A60244B02321A70FFF7E4F96E
:10E03000021EB1D0112818D03B789900CB189B0054
:10E04000FD18E9684C006418281C29796B69174D84
:10E05000A4002D680C300095154D6459A04704228A
:10E06000144B1A70FFF7FAF996E708231C432C604B
:10E0700092E700233B7081E75B465B69B1E73B7841
:10E080009800C01880003D18EB685C00E418DBE7DE
:10E090000122084B1A70FFF7E1F97DE7F42900200F
:10E0A00004290020D42900200C2A0020002A002066
:10E0B000D8290020F9290020F82900206C2302002B
:10E0C000082A002000100010F0B54E46574645467D
:10E0D0000823E0B48C4E82B03468234200D093E031
:10E0E0008A4B1A68571C1F60894B1D68002D50D140
:10E0F000884B802299461B7852059D00ED18AB0095
:10E10000984608234D469A464544AA4453469B6880
:10E110001169581EEB880904C0182B89090CC01816
:10E1200003F068FF874200D282E07B4B00D17BE0A6
:10E130001F68002F00D19CE001231A1C224000D050
:10E140008DE023433360754B1A70754B5869431C3F
:10E1500000D1BEE080235B0519690904090C03F0B6
:10E1600049FF031C80225205106911690004013B1C
:10E17000000C09045843090C03F03CFFFFF73CF97D
:10E18000021E49D0112800D0A7E009231C433460A7
:10E1900042E00421614B197080235B051F693F0435
:10E1A0003F0C57435E4A5069421C3BD01969090431
:10E1B000090C03F01FFF80235B051969013809046E
:10E1C000090C41432A1C381CFFF714F9021E23D006
:10E1D00011284AD04F4801788B005B189B00C51866
:10E1E000281CE9684C006418A40029796B694D4D1E
:10E1F0000C302D6800954C4D6459A04704224B4BC0
:10E200001A70FFF72BF907E09C43444B484A1B78F0
:10E2100034609B009B58984702B01CBC90469946BE
:10E22000A246F0BD5869C6E71B68002B00D083E703
:10E2300002223A4B381C1A70FFF7DEF8021EEBD0B0
:10E24000112812D04B461B789900CB1849469B00E9
:10E25000CD18E968281C4C006418A400C5E7032207
:10E260002E4B1A70FFF73EFCD6E708231C433460A0
:10E27000D2E7297904293DD053464046294C5B68B2
:10E2800024685A00D2186B690094274C92004844C5
:10E290000C3014590022A0474B4602201A784946F8
:10E2A00093009B189B004B441F71DF80D8601F6157
:10E2B0005F611F814B465B780132013BD2B24B70EC
:10E2C0000A2A1DD00A700022184B1A70FFF7C6F8F0
:10E2D000A2E780235B055B6944E74B461B78980007
:10E2E000C0184B4680001D18EB68281C5C00E41821
:10E2F000A4007AE701220D4B1A70FFF7AFF88BE705
:10E3000000230B70DFE7C046F42900200C2A002010
:10E31000082A002004290020D4290020F829002000
:10E3200000100010002A0020D8290020F929002020
:10E330006C23020070B5274C82B023789800C01877
:10E3400080002518281CEB6829795A00D2186B69BF
:10E35000214D92002E680C300096204E96590022D6
:10E36000B04700210226227893009B189B00E318F7
:10E370001971D980DE6019615961198163780132A0
:10E38000013BDBB2D2B263700A2A0BD022700021AB
:10E39000134E14483160144E01703160002B05D1CA
:10E3A00002B070BD002222700022F0E793009A189C
:10E3B0009200A418E3882B602379032B07D0042B49
:10E3C00005D0012BECD10370FFF748F8E8E7FFF721
:10E3D0001FF9E5E704290020002A0020D8290020A1
:10E3E000042A0020F9290020D0290020F0B5474652
:10E3F00080B4684D04262B7882B01A1CB24313D027
:10E40000041E022C14D003280ED1082062490A6889
:10E41000104257D0022B4ED0032B01D0012B03D139
:10E4200082430A60FFF71AF802B004BC9046F0BDC0
:10E43000022B40D0032B54D0012BF5D10821564A92
:10E440001368194278D1554F55493B780E689A00A8
:10E45000D3189B00FA18D1888E1BB6B2D680002E36
:10E460006FD1D1681379480041189846101C536940
:10E470004C4A890012680C3000924B4A8A58414637
:10E4800094460022E0473A7893009B189B00FB18C3
:10E490001E71DE80DC601E615E611E817B78013250
:10E4A000013BD2B27B700A2A67D03A7000232B70EE
:10E4B000FEF7D4FFB8E73D4B3D4A1B789B009B58C5
:10E4C0009847B1E73B490A6801320A60032A3BD00A
:10E4D000022BA7D1354B384A1B789B009B58984795
:10E4E000A2E708212C4A1368194225D1334B2B4E41
:10E4F0001A683478571C1F6080235B051969A300D4
:10E5000098461B199B00F3181A690904501EDA88F3
:10E510001B898018C018090C03F06CFD874200D2DB
:10E5200080E731D0231C43449B00F3181B79042B54
:10E5300025D0FFF7FFFE77E78B431360FEF78EFFD2
:10E5400072E7FFF723FC6FE71448027893009B18EB
:10E550009B00C418201CE268636951008A18217965
:10E56000104C920024680C3000940F4C14590D226A
:10E57000A0472E70FEF772FF56E73E7096E7012324
:10E580002B70FEF76BFF4FE70D4B1B68002BC9D1BB
:10E5900048E7C046F9290020F4290020042900207A
:10E5A000D0290020002A0020D8290020F8290020A6
:10E5B00058230200042A00206C2302000C2A0020A9
:10E5C000D429002010B500202C2400220221484B21
:10E5D00018551434185502341A5302341A5310348F
:10E5E000185502341A530234D960187619625963E7
:10E5F0009964D9651A705A701A71DA801A615A6171
:10E600001A815A835A629A629A83DA859A63DA6324
:10E610001A86DA641A651A665A661A53103418553F
:10E6200002341A5302341A531034185502341A5350
:10E630000634195104341A5104341A510C3C1A533B
:10E640001034185502341A530634195104341A512F
:10E6500004341A510C3C1A531034185502341A530E
:10E660000634195104341A5104341A510C3C1A530B
:10E6700010341855BA201A52063019501967C23191
:10E680005A5004315A500C395A525A679A67194BEA
:10E690001A80194B5869431C25D080235B051969E2
:10E6A0000904090C03F0A6FC80235B051B690338F1
:10E6B0001B041B0C5843114B002118600023104A07
:10E6C000002013600F4A136013815381D36093823B
:10E6D000D3820D4A11700D4A13600D4A1360042253
:10E6E0000C4B1A6010BD80235B055869DCE7C046FF
:10E6F00004290020F029002000100010FC2900202F
:10E700000C2A0020D8290020F9290020042A002002
:10E71000D0290020F4290020F0B557464E46454642
:10E72000E0B4334B1A680823520705D4181C1CBCEC
:10E7300090469946A246F0BD002854D0002952D0F8
:10E740000368002B4FD080277F053A69868892B2F4
:10E7500007239642EAD80F2EE8D9C288002AE5D0CE
:10E76000244B724399461B68041C9846224B424432
:10E7700058690D1C9246431C37D039690904090CAD
:10E7800003F038FC80225205136901381B041B0C6E
:10E79000584307238245C9D8B107C7D1174F033B58
:10E7A0003E88022EC2D043466B600C232E60454645
:10E7B000734313480136C1184D6025681D50A08869
:10E7C0000881E3884B8143431169581E89B214695B
:10E7D00003F0A0FC4A46431CA4B2634343441360C5
:10E7E0003E800023A2E70E23A0E77869CAE7C0466F
:10E7F000F4290020FC29002000100010F02900203E
:10E80000D8290020F0B5134B1C680823640701D4F5
:10E81000181CF0BD00281BD0002A19D00468013B49
:10E82000012CF5D865000C4E2D19AD00AF59002F05
:10E83000EED075192E8940687143091868896D6892
:10E84000704340198142E3D2146051600023DFE736
:10E850000E23DDE7F4290020D8290020F0B5474633
:10E8600080B4204C051C246882B00820640703D4BF
:10E8700002B004BC9046F0BD002930D0002D2ED04F
:10E880002C680138012CF3D867003C19164EA400FF
:10E89000A759002FECD06F683419BC4626896789C8
:10E8A000B04677436668BC19A445E1D2002ADFD0A0
:10E8B0009045DDD3D418A045DADB09308C07D7D1D9
:10E8C00003242342D4D166462642D1D1181C131CFE
:10E8D00000900A1C0120291CFEF764FFC8E70E20E7
:10E8E000C6E7C046F4290020D8290020F0B54746E5
:10E8F00080B4204C051C246882B00820640703D42F
:10E9000002B004BC9046F0BD002930D0002D2ED0BE
:10E910002C680138012CF3D867003C19164EA4006E
:10E92000A759002FECD06F683419BC462689678937
:10E93000B04677436668BC19A445E1D2002ADFD00F
:10E940009045DDD3D418A045DADB09308C07D7D148
:10E9500003242342D4D166462642D1D1181C131C6D
:10E9600000900A1C0420291CFEF71CFFC8E70E209B
:10E97000C6E7C046F4290020D8290020F0B5454656
:10E9800057464E46E0B4284C051C246882B0082047
:10E99000640705D402B01CBC90469946A246F0BD5F
:10E9A00000293FD0002D3DD00C680138012CF1D852
:10E9B00067001E4E3C19A400B2463659002EE9D01D
:10E9C0004E6854446789B4462689B1467E436768D9
:10E9D000B0463C1C4444A445DCD2002ADAD0914520
:10E9E000D8D3D418A145D5DB0930AC07D2D1032444
:10E9F0002342CFD166463440CCD188466344191CAB
:10EA0000281C171C03F087FC42460C231268009751
:10EA1000534352464046D6580221221C2B1CB04775
:10EA2000201CB7E70E20B5E7F4290020D8290020E4
:10EA3000F0B54F464646C0B4224B83B01B6808244D
:10EA40005B0705D4201C03B00CBC90469946F0BD72
:10EA5000002834D00368013C012BF3D85D00EB188B
:10EA6000194A9B009D58002DECD0D3181F895D8951
:10EA70005A687D434668AD18AE42E3D20934B30705
:10EA8000E0D188468146391CB01A03F039FB093CB5
:10EA90000029D7D14046391C03F032FB89B2002946
:10EAA000D0D14346002BCDD04644B542CAD3002234
:10EAB000032000924946FEF775FE041CC2E70E24AF
:10EAC000C0E7C046F4290020D8290020074B1A6867
:10EAD0000823520701D4181C7047002804D0044BA7
:10EAE0005B7803600023F6E70E23F4E7F4290020A7
:10EAF00004290020A02210B5064BD205D15880234E
:10EB00001B041C1CA1208C430B400349C000145063
:10EB1000535010BD040500000C050000F8B54F4629
:10EB20004646041CC0B4112809D012283AD0132834
:10EB30003AD014283AD00CBC90469946F8BD00252E
:10EB4000012911D000291FD00229F4D16B005D19D1
:10EB5000204B5D196E78002EEDD01F4B1B68002BEB
:10EB6000E9D0301C9847E6E71A4B6F0098464246BA
:10EB70007B19D65C43445B78002B19D17F1947443D
:10EB8000BA78164B5A55E6E7154B1868FEF798F811
:10EB9000104A6B005B19D318104A9B78565D9E4251
:10EBA000C9D1D8E70125CBE70225C9E70325C7E787
:10EBB0000B4B18680B4B1B689900C9180A4B49008E
:10EBC0001A1C9946FDF7EEFF0028D7D14B461C7062
:10EBD000D4E7C046302A0020242A0020102A002032
:10EBE000182A00201C2A0020292A0020F8B5AC4B46
:10EBF0001B68DB0700D4F8BDAA4A1478172CFAD892
:10EC0000A949A300CB589F46A022A84BD205D158B2
:10EC10008023DB031C1CA1208C430B40A449C000B3
:10EC200014505350A34B00221868A34B1B68990043
:10EC3000C918FDF7B7FFDEE7A023F021DB05490483
:10EC40009B4A99500021043A9950D4E7A022974B4F
:10EC5000D205D1588023DB031C1CA1208C430B4020
:10EC60009349C00014505350924B00221868924BA5
:10EC70001968FDF797FFBEE7A021A120A023002679
:10EC8000F025C9055B04C000894C0B50874B0E5121
:10EC9000CB586D046B408025AD032B4000D1EBE0D9
:10ECA0000D5003230E5108211370824B0022186867
:10ECB000814B1B685943FDF775FF9CE7A021A120FC
:10ECC000A0230026F025C9055B04C000784C0B503A
:10ECD000764B0E51CB586D046B408025AD032B4015
:10ECE00000D1D1E00D5004230E512821DCE7A023F0
:10ECF000A122E021DB05D2004904802499500021A3
:10ED00006B48A40319501C50995074E76B4D286848
:10ED1000FDF7D6FF11231C1B00D19EE0002800D078
:10ED20009BE0012C0DD0C8306421604303F062F9F0
:10ED3000614B2D681B6800224343281C191CFDF7FA
:10ED400031FFA0238021DB05090479E7A023B0214E
:10ED5000DB054904A122D20099500021544A995060
:10ED600049E7A021A120A0230027F026C9055B04C4
:10ED7000C0004F4D0B504D4B4F51CB587604734054
:10ED80008026B60333406DD00E504F51022C00D177
:10ED90007FE02821147088E7A023A122C021DB0591
:10EDA000D2004904C024995000214148E40319507D
:10EDB0001C5099501FE7A023A122D021DB05D200CF
:10EDC00049048024995000213948E40319501C500B
:10EDD000995010E7A023F021DB054904BAE7A023EE
:10EDE000A122DB05D200A02186E7A021A120A0233B
:10EDF0000026F025C9055B04C0002D4C0B502B4BA1
:10EE00000E51CB586D046B408025AD032B4030D0A4
:10EE10000D500E5105231370264B00221868264B07
:10EE200019684900FDF7BEFEE5E6A021A120A02358
:10EE30000026F025C9055B04C0001D4C0B501B4B80
:10EE40000E51CB586D046B408025AD032B4018D07C
:10EE50000D500E510623137006E7A0238021DB0519
:10EE6000090477E74E510B50022C15D00421147081
:10EE70001BE70D510B50CDE70D510B500221032321
:10EE800012E70D510B50E5E70D510B5004210423FF
:10EE90000AE71221147008E70221147005E7C04642
:10EEA000142A0020282A00208023020004050000E4
:10EEB0000C0500002C2A00201C2A0020202A0020FB
:10EEC00008B50378112B06D0122B12D0132B12D0B9
:10EED000142B12D008BD00235A00D318084AD318A7
:10EEE00058780028F6D0074B1B68002BF2D09847C3
:10EEF000F0E70123F0E70223EEE7113BECE7C04621
:10EF0000302A0020242A0020002303280DD8A22321
:10EF1000A022DB00D205D258054B8000C058012347
:10EF2000834093435A1E9341DBB200200B7070471D
:10EF30004024020070B5CC4B041C1B680020DB078A
:10EF400000D470BD172CFCD8C84AA300D3589F46E4
:10EF5000A022C74BD205D1588023DB031C1CA12063
:10EF60008C430B40C349C00014505350C24B002285
:10EF70001868C24B1B689900C918FDF713FEE0E73B
:10EF8000A022BB4BD205D1588023DB031C1CA1203F
:10EF90008C430B40B749C00014505350B64B00226D
:10EFA0001868B64B1968FDF7FDFDCAE7B44D28682F
:10EFB000FDF786FE11231C1B00D130E1002800D094
:10EFC0002DE1012C0DD0C8306421604303F012F80C
:10EFD000AA4B2D681B6800224343281C191CFDF70F
:10EFE000E1FDA0238021A34ADB05090499500021FB
:10EFF000043A9950A5E7A023F021A122DB0549049A
:10F00000D200995000219B4A0020995012229D4B1A
:10F010001A7096E7A023A122E021DB05D200490463
:10F020008024995000219348A40319501C509950F2
:10F030001322944B00201A7083E7A023F0218D4AFD
:10F04000DB05490499500021043A99508D4B00206A
:10F050001C7076E7A022B021A123D2054904DB0071
:10F06000D1500023834900205350864A137068E72B
:10F07000A022A121A0230026F025D2055B04C9000F
:10F080007C4853507A4B1650D3586D046B40802502
:10F09000AD032B4000D1D5E055501650022C00D1C5
:10F0A000DDE02821774B1C70734B00221868734BEE
:10F0B0001B685943FDF776FD43E7A023F0216D4A15
:10F0C000DB05490499500021043A9950002038E7A3
:10F0D000A023A122D021DB05D2004904802499502D
:10F0E00000216448E40319501C5099501422654BC8
:10F0F00000201A7025E7A022A121A0230025F024DA
:10F10000D2055B04C9005B485350594B1550D35886
:10F11000640463408024A403234000D18AE0545057
:10F1200015500821032217E0A022A121A0230025C9
:10F13000F024D2055B04C9004E4853504C4B155087
:10F14000D358640463408024A403234000D17FE0AB
:10F1500054502821155004224A4B1A70A4E7A023CA
:10F16000A122A021DB05D20049048024995000216E
:10F170004048A40319501C5099500722414B0020CD
:10F180001A70DEE6A023A122C021DB05D2004904CB
:10F19000C024995000213748E40319501C5099505D
:10F1A0001522384B00201A70CBE6A022A121A02303
:10F1B0000025F024D2055B04C9002E4853502C4B87
:10F1C0001550D358640463408024A403234036D0F0
:10F1D0005450155005222B4B1A70274B00221868EB
:10F1E000264B19684900FDF7DDFCAAE6A022A12103
:10F1F000A0230025F024D2055B04C9001D4853500C
:10F200001B4B1550D358640463408024A40323404F
:10F2100022D05450155006221A4B1A70BEE6A02375
:10F220008021A122DB050904D20099500021114A56
:10F23000995086E614505350022103228CE7145053
:10F240005350C7E715505350022C0AD0042129E728
:10F250001450535004217EE714505350DBE7122121
:10F2600020E702211EE7C046142A0020E023020006
:10F27000040500000C0500002C2A00201C2A002098
:10F28000202A0020282A0020234B10B51960234B88
:10F29000041C1860224B1A60830712D50D22214BE3
:10F2A00021481A700132DA7001329A7101325A72B1
:10F2B0004A080421FDF708F8002820D0E30703D40A
:10F2C0001CE0C3070ED50020A023F022A1210024BA
:10F2D000DB055204C9005A5014495C500C315A5095
:10F2E00000280BD112480021124AFDF727FC002804
:10F2F00004D111480121114AFDF720FC10BDFDF792
:10F300003DF80028DAD10E4800210E4AFDF716FC20
:10F31000E307E5D5D8E7C0461C2A0020142A0020C0
:10F32000242A0020302A0020502402000C0500006E
:10F330002C2A0020EDEB0100202A0020F5EA010034
:10F34000182A0020C1EE0100031C0720032B00D95E
:10F350007047012A13D0012917D0002908D00229AB
:10F3600019D15800C3180D48C3185A700020EFE790
:10F370005800C3180948C3189A700020E8E7002213
:10F380000129E8D11A1C0D32D2B258000349C31822
:10F390005A540020DCE70720DAE7C046302A002074
:10F3A000E0231D4ADB00D2581C4B1A400023C10742
:10F3B00001D5C0239B021343E0221749D2008B5092
:10F3C000174B9A58154B1A400023810701D5C023CB
:10F3D0009B021343E0221249D2008B50114B9A58E2
:10F3E0000E4B1A400023410701D5C0239B02134353
:10F3F000E0220C49D2008B500B4B9A58074B1A4015
:10F400000023010701D5C0239B021343E0220649D4
:10F41000D20000208B50704744000050FFFFFCFFDB
:10F42000480000504C0000505000005008B5032028
:10F43000FFF7B6FF031C0020002B02D0062B00D0E4
:10F44000181C08BD10B50388102B08D0112B05D14E
:10F45000294A1368013B1360002B07D010BD264CCE
:10F460002368002B11D001332360F7E7002002212D
:10F470000122FFF769FF00282BD0072829D01F4B56
:10F480001B68002BEAD09847E8E700200021012202
:10F49000FFF75AFF002808D0072806D0174B1B6833
:10F4A000002B00D098472368DDE7012002210722C6
:10F4B000FFF74AFF002801D00728EFD100200221E2
:10F4C0000422FFF741FF0028EDD00728E6D123688A
:10F4D000C9E7012002210722FFF736FF002801D0EB
:10F4E0000728CCD1002000210A22FFF72DFF002899
:10F4F000B4D00728C3D1B1E7402A00203C2A00201D
:10F5000010B5244B82B00C1E186018D06B4600203A
:10F51000991DFFF7F9FC002801D002B010BD6B4621
:10F520000130D91DFFF7F0FC0028F6D16B46DB79DE
:10F53000002B29D16B469B79002B28D12370164BC9
:10F540001B68002B01D00020E7E7002002210122E8
:10F55000FFF7FAFE002801D00728DED101200221A2
:10F560000722FFF7F1FE002801D00728D5D100209F
:10F5700000210A22FFF7E8FE0028E4D0C31F5A1E2C
:10F5800093415B421840C8E702232370D7E70B235F
:10F590002370D4E73C2A0020402A002076DF704701
:10F5A0007ADF70477CDF704760DF70473CDF704771
:10F5B00048DF704708B500210022FCF7F7FE08BDC0
:10F5C00010B5041CFEF712FF201C01F073F810BDEB
:10F5D00008B5002A04D0101C00210022FCF7E6FE2A
:10F5E000002008BD08B50378002B00D008BD064BED
:10F5F0003B211888FFF7D2FF0028F7D00021002216
:10F60000FCF7D4FEF2E7C0466828002010B5041CC1
:10F6100002F03EF8201C01F015FC201CFFF712FF41
:10F620002388102B09D0112B03D10122094B524200
:10F630001A80201C00F0E4FF10BD0720FFF77AFCC1
:10F64000002803D000210022FCF7B0FEA288014B65
:10F650001A80EEE76828002008B5072820D00A287D
:10F6600010D0042800D008BD144B13211888FFF7D0
:10F6700095FF0823021C9A43F5D000210022FCF7D5
:10F6800095FEF0E70020FFF755FC002810D1FFF7AA
:10F69000CDFE002807D1FFF789FF0028E3D0ECE773
:10F6A00001F078F9E5E700210022FCF77FFEF2E7A0
:10F6B00000210022FCF77AFEE9E7C0466828002016
:10F6C00008B5002807D0032804D10138FFF732FC21
:10F6D00000280DD108BD0020FFF72CFC00280CD11C
:10F6E000FFF7A4FE00280DD1FFF760FF0028F1D03E
:10F6F00000210022FCF75AFEECE700210022FCF773
:10F7000055FEEDE700210022FCF750FEECE7C04675
:10F7100008B5031C0A1C0248191CFCF747FE08BD6B
:10F72000EFBEADDE002370B598B000930020092134
:10F730000522884BFDF77EF9002803D00021002226
:10F74000FCF734FE03208449844AFFF79DFD00281E
:10F7500003D000210022FCF729FE0CAC0020211C64
:10F76000FFF7CEFE002803D000210022FCF71EFE8A
:10F7700026780820023E73425E41794948220023E0
:10F78000F6B202F0B9FB002803D000210022FCF7FA
:10F790000DFE0822201C0021FCF70AFD00236360F7
:10F7A00001232278201C13432370FFF7FDFE00285D
:10F7B00003D000210022FCF7F9FD6A4802F0C2FBE9
:10F7C000002803D000210022FCF7F0FD664802F07B
:10F7D000C3FB002803D000210022FCF7E7FD03ADA6
:10F7E0002E70FEF7EFFE002803D000210022FCF768
:10F7F000DDFD281C01F040FE002803D0002100227E
:10F80000FCF7D4FD3520002105226844FCF7D0FC2C
:10F810000123627955481A43E1231A400C231A4305
:10F82000CD23134063710723A3710933E371504B58
:10F83000211C0C930123237101F0C4FE002803D086
:10F8400000210022FCF7B2FD0F2101222B78494E46
:10F850008B43134310220B401343301C2B7002F0D8
:10F8600063FD311C82B2281CFFF79CFE002803D0E8
:10F8700000210022FCF79AFD201C00210822FCF741
:10F8800097FC50232380503363800023A38091335F
:10F89000FF33201CE380FFF783FE002803D0002104
:10F8A0000022FCF783FD00213022201CFCF780FCA5
:10F8B000022306222370013BA37023822E4BE270A9
:10F8C000636101220023EB602A73962252002A61B1
:10F8D000783A6B60AB60AB61EB612B626A6103935A
:10F8E0000093201C00212A1C244B00F085FC0028DA
:10F8F00003D000210022FCF759FD1C22201C00210E
:10F90000FCF756FCA02292026260F0220023120350
:10F91000A26003220C93E3812374194B201C6361C2
:10F92000184B2273A36101F051FA002803D0002183
:10F930000022FCF73BFD032000F002FD002803D16C
:10F94000FFF736FE0028FBD000210022FCF72EFD39
:10F95000F6E7C046482A0020CD0C000059F6010009
:10F96000782D00200DF60100C1F50100442A002089
:10F97000D1F501007024020064280020C1F60100C6
:10F98000E5F50100B5F5010072DF704779DF7047DA
:10F990007DDF704765DF7047F0B55F4656464446E9
:10F9A0004D46F0B485B09A460E9B061C98461B78CF
:10F9B0008B4601930388171C002B40D000239946E7
:10F9C00002AB0024DD1C03E033880134A3422CDDAC
:10F9D0007368A1009C460422614403A802F09BFCCA
:10F9E00003A8291C0022FFF7D5FF002828D12B7877
:10F9F000BB42E9D14B46002B29D043461A78D31994
:10FA00001F2B34DC524403A8291CFFF7C3FF002836
:10FA100016D143461A782B780134D3184246137016
:10FA2000012399463388A342D2DC4B46002B06D0F3
:10FA3000434651461B78019A013B9B1A8B54002088
:10FA400005B03CBC90469946A246AB46F0BD434645
:10FA50001B78DA191D2A0ADC41469A1C0A705246A4
:10FA600059460133DBB2D15443461A78CAE70C2019
:10FA7000E6E7C046F0B556464D4644465F4600238D
:10FA8000F0B497B005AD02AA041C0E1C2B70537382
:10FA9000002800D11EE1C3785B0700D4B2E00378F0
:10FAA000002B00D0DAE18378002B00D00BE200239A
:10FAB000E278002A00D0ADE06268002A0FD0117809
:10FAC0001C2B00DDFEE002220A2006AFFA545A1C6D
:10FAD000D2B2B854DA1C0233DBB22A70F95423894B
:10FAE000002B00D00BE2238A002B00D0A6E2238B50
:10FAF000002B00D0BBE2236A002B4BD02A780C20CD
:10FB0000911D8A461F2900D97DE0198805388B464A
:10FB1000052978D96C4F6946BC46DC4467468F811D
:10FB20008F89BC46694FB846BC456CD95F88BC46D6
:10FB3000052F68D9644F67448F81BFB2474562D9AA
:10FB4000634FBB4503D0BC4501D0E3455BD80520DE
:10FB500006AFB854901CC1B2297089466946501C42
:10FB60000873C0B28446122080466046414639542C
:10FB7000198804328C4649467818614601706146FE
:10FB8000090A41705B88D2B2BF183B701B0A7B70B8
:10FB900053462B70636A9846002B2BD01B792A782A
:10FBA0009C460233911CDBB2CB180C201F2B2ADCA5
:10FBB000634606AF0333BB54531CDBB2F330F85437
:10FBC0004346C9B229701B8879180B701B0A4B7009
:10FBD00043460432D0B228709A88002A0AD0996825
:10FBE00000290FD0381802F096FB43469A882B78EC
:10FBF000D3182B702C23E15C06AF002900D0B8E1AC
:10FC0000B94669E0072017B03CBC90469946A24629
:10FC1000AB46F0BD022106AFF954991CC9B2884623
:10FC20000121581CC0B2395441460333DBB22B705A
:10FC30007A5441E773780C201D2BE4DC02AB9C4620
:10FC40000E241D23644426306044211C2380FFF7CA
:10FC50009FFE0028D7D13378022B00D1C1E2737800
:10FC6000002B03D09BB208221D2B01D90822238828
:10FC70000EA988464046427002AA527BDBB202328D
:10FC8000591C9B18DBB202AA01705373B278002A88
:10FC900000D02DE2F478002C0ED0022241464746D7
:10FCA0000120CA54591C9A1CC9B203337854D2B2E9
:10FCB000DBB202A94B73BC547268002A31D01178B0
:10FCC0001C2B20DD0C209EE77FF3FFFF7DF300005F
:10FCD000FFFF000000239946002E00D10DE2F378CB
:10FCE000002B00D08EE702AA53733378002BA1D1EA
:10FCF000B378002B00D0D9E172680023002A10D01D
:10FD000011780EAA9046022240464446C2540A2068
:10FD10005A1CD2B2A054DA1C023302A8DBB24273DE
:10FD2000E1543389002B00D002E1338A002B00D04C
:10FD300063E1338B002B00D0E3E1336A002B4BD01F
:10FD400002AA527B0C20911D1F2900D95BE718885D
:10FD500083465C460720052C00D854E7D04F5F440B
:10FD6000BFB2B846CF4FBC46B84500D84BE75F8816
:10FD7000BA46052F00D846E7C94F6C46B846D0446E
:10FD80004746A781A789674500D83CE7C64FBB45D2
:10FD900004D0BA4502D0D34500D934E70EA8804636
:10FDA00005204446A054901CC0B202AC6073844647
:10FDB00012274046541CE4B2075560461C88404454
:10FDC0000470240A447004325B88D2B24244137037
:10FDD0001B0A537002AB5973746A002C2FD002AB0C
:10FDE00027795A7BBB1C911CDBB2CB180C201F2B34
:10FDF00000DD08E70EAB984603379F544746C9B26B
:10FE000002AB5973531CDBB2F330F85423884144DE
:10FE10000B7004321B0A4B70D0B202AB5873A2882D
:10FE2000002A0CD0A168002900D1EBE6404402F082
:10FE300072FA02ABA2885B7BD31802AA53732C23FD
:10FE4000F15C002900D07DE10EAA904602AB5B7BFD
:10FE5000424629784846FFF797FDD4E663780C20A0
:10FE60001D2B00DDCFE60EAB98461D2342461380C6
:10FE700002AB9C46063060444146FFF789FD0028EE
:10FE800000D0C0E62378022B00D1A3E16378002BD9
:10FE900003D09BB208221D2B02D9434608221B889F
:10FEA00006AF7A702A78DBB20232591C9B18DBB29B
:10FEB00039702B70A278002A00D1F9E50C201B2B99
:10FEC00000D9A0E601E00EAB98464046FFF75EFD84
:10FED000002800D097E6032219212B7806AFFA54A8
:10FEE0005A1CD2B2B954424611889A1CD2B2BF18D9
:10FEF00004333970DBB2090A79702B70D8E5082316
:10FF0000984606AFA04400954046022102223B1CC1
:10FF1000FFF742FD002800D075E600954046062117
:10FF200010223B1CFFF738FD002800D06BE6DAE515
:10FF30000EAB02AA98469446341C0D230834634441
:10FF40000093201C022102224346FFF725FD0028D2
:10FF500000D058E602AA94460D2363440093201C67
:10FF6000062110224346FFF717FD002800D04AE67D
:10FF7000DBE6A36A002B00D144E60022914616324C
:10FF80009246163228788C46934600E0A36A4A4689
:10FF9000984652004A4492009044434651469B88FA
:10FFA000421C0333D2B23B54B9544246831CDBB2E9
:10FFB0002B701288FB181A70120A5A7043460430CC
:10FFC000C0B228709A88002A0FD09968002900D101
:10FFD00018E6381802F09FF9434698882B78C01825
:10FFE0005B46E35CC0B29C4628704B460133DBB2F3
:10FFF00099466345CAD3B9466EE60EAB02AA984647
:020000022000DC
:100000009446341C0D23103463440093201C0321B8
:1000100002224346FFF7C0FC002800D0F3E502AA05
:1000200094460D2363440093201C0721102243466D
:10003000FFF7B2FC002800D0E5E57AE610239846E9
:1000400006AFA04400954046032102223B1CFFF767
:10005000A3FC002800D0D6E50095404607211022D9
:100060003B1CFFF799FC002800D0CCE53FE51823A6
:10007000984606AFA04400954046142102223B1C3E
:10008000FFF78AFC002800D0BDE500954046152109
:1000900010223B1CFFF780FC002800D0B3E52AE5C6
:1000A0007FF3FFFF7DF30000FFFF000002AB0E2493
:1000B0009C466444201CFFF769FC002800D0A2E5A0
:1000C0000EAA90460322414602AB5B7B4046CA54CF
:1000D00019215A1CD2B281549A1C2188D2B24244AE
:1000E00011700433090A5170DBB202AA5373D1E5CF
:1000F0000C201B2B00D986E5DCE702AB5B7B0022E2
:10010000A7E60EAB02AA98469446341C0D23183479
:1001100063440093201C142102224346FFF73CFC59
:10012000002800D06FE502AA94460D236344009393
:10013000201C152110224346FFF72EFC002800D07A
:1001400061E5FAE5B46A002C00D15BE503910EA9E4
:100150008846162102AB8A4616315B7B221C00279B
:100160008B4600E0B26A40467C00E419A4001419F2
:10017000A28841460332C2549A1CD2B202A84273EA
:1001800094465246581CC0B20A54624620884244E3
:1001900010700433000A5070DBB202AA5373A288B5
:1001A000002A11D0A168002900D12BE54344181C76
:1001B00002F0B1F802ABA0885B7B02AAC318DBB2E5
:1001C00053735A46B25C03920137039AFFB29742C7
:1001D000C8D33DE643461B8809221D2B00D85FE6A5
:1001E00054E6238809221D2B00D841E537E5C04697
:1001F00073DF704774DF7047F8B5051C0E20002DC3
:1002000000D17DE0002A00D17AE000200F1C3D499A
:1002100008703D490B6006993C4B19603C490B1C2A
:1002200013CA13C313CA13C313CA13C3002107226B
:100230003848FBF7BDFF384B384A394E1A60394A07
:1002400000219A60301C3022FBF7B2FF2B782A1C69
:100250003370AB781032B370EB78F3706B787370E7
:10026000331C103303CA03C3331C103A083303CAC8
:1002700003C3331C0832183303CA03C36B6A002B51
:1002800011D0294B294C7362696A9C600A881A80D4
:1002900088889880002806D000238A68D25CE254BF
:1002A00001338342F9D1AB6A002B14D0204B214893
:1002B000B362A96A98608C889C800A881A8000239F
:1002C000002C05D08A68D25CC2540133A342F9D114
:1002D0002C23EA5CF2542B6A002B06D0164B3362B7
:1002E0002A6A5188598012881A806B68002B03D0C3
:1002F000124B73606B687360301C391CFFF7BAFBDC
:10030000F8BDC046C82E0020FC2D0020202E002065
:100310002C2E0020242E0020742E0020502E002091
:10032000C02D0020A82E0020F02D0020002E00203F
:10033000D02E0020842E0020CC2E0020702E0020F5
:10034000F0B50024A34D89B0287001A80194FEF7F0
:10035000BDFB082809D0002805D1019B002B05D042
:1003600001229D4B1A7009B0F0BD01949B4F0021F2
:10037000381C0722FBF71CFF994E7378002B58D0CE
:100380002B78012B05D0B278002A00D1FCE0022B9B
:100390000FD1944A1268002A00D106E10121924B44
:1003A0000820197090472B78012B00D18DE0022B8B
:1003B00049D0327B002A01D1032B65D0327E002A3E
:1003C00001D1042B65D0874A1268002A03D0033B71
:1003D000012B00D899E00022844B1A7002AC18223D
:1003E000201C0021FBF7E4FE00232A7823706360C1
:1003F0002372E360022A00D1BCE04FD9032A00D166
:10040000A5E0042A00D09FE0B38B2382338C638263
:10041000774B1A79002A00D1BCE03278002A04D048
:10042000744A1278002A00D1C2E00422724B1A707A
:100430003CE0B378002BB6D02B78022BA9D0012B4F
:10044000B7D102232B70B378002B17D07B78002B09
:1004500000D0A8E0BB78002B00D0A4E0FB78002BF4
:1004600000D0A0E03B79002B00D09CE07B79002BF2
:1004700000D098E0BB79002B00D094E003232B70D0
:10048000337B002B00D083E004232B70337E002BC2
:1004900036D10023584A2B7013709CE7012A53D1A0
:1004A00063822382544B676022701A70201CFFF70E
:1004B0009FFE002800D056E74A4B1B68002B02D055
:1004C0004D4A1078984700204DE77278002AB8D03E
:1004D0007A78002A00D076E7BA78002A00D072E74E
:1004E000FA78002A00D06EE73A79002A00D06AE74D
:1004F0007A79002A00D066E7BA79002AA1D062E7AB
:10050000384B1A68002A00D165E73378002B00D1F8
:1005100061E7384B1B78002B00D05CE70121334B9F
:1005200007201970904759E7E360042333480232EB
:1005300000212272C370FFF79DFA002800D012E755
:1005400005222D4B1A702A78002AB5D0AEE7B38A5F
:100550006382338A2382264B1A79002A1FD032788D
:10056000002A03D0234A1278002ADDD00322224B2E
:100570001A709BE701232370338967606382736875
:1005800023821D4B1A7091E7022B00D011E775E70B
:10059000032318E71A7B002A00D03EE745E71A7BC1
:1005A000002ADCD1E2E702230DE70F490A70FBE6DF
:1005B000E36004231148023200212272C370FFF766
:1005C00059FA002800D0CEE606220B4B1A702A7882
:1005D000BAE7C046C82E0020C92E0020242E0020D5
:1005E0002C2E0020FC2D0020A32E0020A42E002065
:1005F000742E00201F2E0020DC2E0020C02D002095
:1006000008B50388112B20D0192B09D0102B00D04E
:1006100008BD037D012BFBD18288204B1A80F7E7B0
:100620008279002AF4D11E4B1B78022B30D027D9B7
:10063000032B1DD0042BEBD11A4B1A701A4B1B68DD
:10064000002BE5D000209847E2E70022174B1A70F4
:10065000124B82881B889A42DAD10120FFF770FE84
:100660000028D5D0124B1B68002BD1D09847CFE77C
:100670000C4A04201370FFF763FE0028F2D1C7E78D
:10068000012BC5D10220FFF75BFE0028EAD1BFE7AE
:100690000320FFF755FE0028E4D1B9E76A280020BF
:1006A000C82E0020DC2E0020FC2D00201F2E002054
:1006B000202E0020F0B5023889B0012803D8A94CBB
:1006C0002378002B01D109B0F0BD002501A82570C9
:1006D0000195FEF7FBF9082808D0002800D098E023
:1006E000019B002B03D001232370ECE701959E4F63
:1006F0000021381C0722FBF75BFD9C4D6B78002B1B
:100700005CD09B4E3378012B00D1B6E0AA78002A4A
:1007100000D10DE1022B00D1AFE02A7B002A02D1EB
:10072000032B00D1B3E02A7E002A02D1042B00D192
:10073000D9E0904A1268002A03D0033B012B00D86D
:10074000AFE000228C4B1A7002AC1822201C002152
:10075000FBF72EFD00233278237063602372E36081
:10076000022A00D1C4E064D9032A00D1CAE0042AD5
:1007700000D0B4E0AB8B23822B8C63827F4B1A7941
:10078000002A02D11A7B002A07D02A78002A04D036
:100790007B4A1278002A00D1D3E00422794B1A70E8
:1007A000201CFFF725FD002833D1724B1B68002B5E
:1007B00000D188E7734A1078984784E7AB786C4E8D
:1007C000002B2DD13378012B3CD0022BA5D1AB7857
:1007D000002B17D07B78002B00D0B0E0BB78002B2B
:1007E00000D0ACE0FB78002B00D0A8E03B79002BD8
:1007F00000D0A4E07B79002B00D0A0E0BB79002BD7
:1008000000D09CE0032333702B7B002B3FD00323CD
:100810008FE75D4B1B68002B00D154E7984752E7E8
:100820003378022B29D0012B00D076E702233370D6
:10083000CDE7012A53D163822382524B6760227035
:100840001A70ADE76A78002AF0D07A78002A00D0D2
:100850006FE7BA78002A00D06BE7FA78002A00D058
:1008600067E73A79002A00D063E77A79002A00D056
:100870005FE7BA79002AD9D05BE73E4A1268002ABE
:100880005AD00121414B0820197090479AE7042360
:1008900033702B7E002B26D0364B1A68002A00D1ED
:1008A0004FE72B78002B00D14BE7354B1B78002B03
:1008B00000D046E70121304B07201970904743E7ED
:1008C000E36004233248023200212272C370FFF732
:1008D000D1F800289DD105222A4B1A703278002ABF
:1008E00000D162E75CE70023264A3370137028E7E3
:1008F000012323702B89676063826B682382214BFD
:100900001A704DE7AB8A63822B8A23821B4B1A79BC
:10091000002A02D11A7B002A06D02A78002A03D0A6
:10092000174A1278002ACBD00322164B1A7037E7E9
:10093000022B00D0F1E665E714490A7043E7022371
:10094000F7E6E36004231248023200212272C370EA
:10095000FFF790F8002800D05BE70622094B1A70D9
:100960003278BCE7C92E0020242E00202C2E002037
:10097000C82E0020FC2D0020A42E0020742E002064
:100980001F2E0020DC2E0020202E0020A32E002071
:10099000C02D0020F0B5474680B4BB4C88B023780A
:1009A000002B00D1A1E0B94D2B78002B00D09CE0AA
:1009B000B74F3B78002B00D09CE00023012601A814
:1009C0002E7098460193FEF781F8082808D0002879
:1009D00000D095E0019B002B04D0AE4B1E7085E04B
:1009E00043460193AC4B0021181C07229846FBF7A5
:1009F000DFFB6378002B00D088E0A378002B00D1C8
:100A000097E03B78022B00D189E0012B00D096E0E3
:100A100002233B70A378002B1DD043465B78002B4C
:100A200000D01DE143469B78002B00D018E14346DF
:100A3000DB78002B00D013E143461B79002B00D05C
:100A40000EE143465B79002B00D009E143469B79D8
:100A5000002B00D004E103233B70237B002B00D14B
:100A600072E003238D4A1268002A03D0033B012B56
:100A700000D873E000228A4B1A7002AE1822301C94
:100A80000021FBF795FB00233A78337073603372D3
:100A9000F360022A00D1BCE000D879E0032A00D13B
:100AA000C2E0042A00D0B0E0A38B3382238C73828F
:100AB0007C4B1A79002A02D11A7B002A06D02278B0
:100AC000002A03D02A78002A00D1CBE00422764BFA
:100AD0001A70301CFFF78CFB002811D16F4B1B687C
:100AE000002B02D0704A10789847002008B004BC50
:100AF0009046F0BDFFF77EFB002800D15DE7F5E7EB
:100B00006A4B1B68002BF0D09847EEE73B78012B2F
:100B100005D0A278002A00D19BE0022B0FD15F4ABA
:100B20001268002A00D198E00121614B0820197059
:100B300090473B78012B35D0022B00D16AE7227B0E
:100B4000002A19D1032B17D104233B70237E002BDD
:100B500019D0524B1A68002A00D18BE72378002B5A
:100B600000D187E72B78002B00D083E701214C4B85
:100B700007201970904780E7227E002A00D071E795
:100B8000042B00D06EE70023474A3B70137071E7D7
:100B9000012A3AD1414673823382434B71603270ED
:100BA0001A7096E76278002A00D131E742465278FF
:100BB000002A00D056E742469278002A00D051E73A
:100BC0004246D278002A00D04CE742461279002AE9
:100BD00000D047E742465279002A00D042E7424619
:100BE0009279002A00D113E73CE7F36004233148EF
:100BF000023200213272C370FEF73CFF002800D0A1
:100C00007EE70522284B1A703A78002A00D165E762
:100C10005FE74346736001233370238973826368FF
:100C20003382214B1A7054E7A38A7382238A33825A
:100C30001C4B1A79002A02D11A7B002A05D022788F
:100C4000002A02D02A78002ACFD00322164B1A702D
:100C50003FE7022B00D072E7FDE615490A7069E70D
:100C60000223FFE6F36004231248023200213272AD
:100C7000C370FEF7FFFE002800D041E706220A4BB2
:100C80001A703A78C1E7C0462C2E00201F2E002093
:100C9000C82E0020C92E0020242E0020FC2D00206C
:100CA000A42E0020742E0020DC2E0020202E0020F8
:100CB000A32E0020C02D002075DF704776DF70471F
:100CC0007ADF70477BDF704710B5184B82B0188809
:100CD000174B984214D0174A174C13780133DBB2E4
:100CE0001370217B99420DD200231370237C002BBB
:100CF00012D16369002B03D0002201A8027098472B
:100D000002B010BD0D49FFF7D7FF0028F8D0A36946
:100D1000002BF5D09847F3E73B21FFF7CFFF0028E2
:100D2000E7D0A369002BE4D09847E2E70C2F00201E
:100D3000FFFF0000E82E0020EC2E0020102F0020E6
:100D400030B51C4B1C4A5B88118883B099420FD880
:100D500052889A420CD3194B5B69002B03D00122B5
:100D600001A802709847164C0023237003B030BDD1
:100D7000134C2378002B08D0104B5B69002BF3D069
:100D8000002201A802709847EEE70E4B0B4D1B782E
:100D9000002B0CD0A9680C4B00221868FBF702FF4F
:100DA0000028E1D0AB69002BDED09847DCE769680A
:100DB000F1E7C046E02E0020102F0020EC2E00208E
:100DC000DD2E0020E82E0020082F0020164938B51F
:100DD000021C0B1C32CA32C332CA32C312681A60F8
:100DE0000022124B01681A70002916D0104C0832EC
:100DF000201C01F090FA201CFFF762FF00280BD1A5
:100E000001220C4B52421A8000220B4B0B481A70E5
:100E100000210B4AFBF792FE38BD0548FFF752FF51
:100E20000028EDD0F8E7C046EC2E0020DD2E002093
:100E3000102F00200C2F0020E82E0020082F00206B
:100E4000C90C020010B50388112B36D022D9122B01
:100E500018D0502B1DD1224CC288E3899A4218D158
:100E6000C38B022B15D11E33C35CDB070FD41D4B84
:100E70001868FBF725FF00280BD0A369002B08D0CA
:100E8000984706E0811D0822174801F044FAFFF751
:100E900057FF10BD102BFCD1011C8288134B16315B
:100EA0001A801148082201F036FA0022104B1A70FD
:100EB0000B4BDB89002BECD1E9E701220B4B5242B3
:100EC0001A8000220A4B1A70064B1868FBF7F8FECE
:100ED0000028DED0024B9B69002BDAD09847D8E778
:100EE000EC2E0020082F0020E02E00200C2F0020E8
:100EF000E82E00207FDF704782DF7047A7DF704752
:100F0000A9DF7047AADF70470020704700207047B4
:100F10000020704700207047002070470020704775
:100F200000207047354AF8B54F4691464646494637
:100F3000C0B44378071CDA00D218920089184C68B4
:100F4000002C0DD058002E4EC11889007118897AD6
:100F50004DB2002D46DB002200250024904605E01E
:100F60000022002500249046254E5800C3189B00FF
:100F7000F31818894146221C2B1CFFF7C1FF0B28D0
:100F800008D0002814D01F48012D14D00CBC904666
:100F90009946F8BD7B7841465A00D3189B00F31858
:100FA0001889221C0123FFF7ABFF002803D101257C
:100FB0000020012DEAD17B780C215A00D3189B0028
:100FC000F6183089104AFFF799FF0028DED0022278
:100FD0000E4BC31893430FD008280DD011280BD007
:100FE0000020D3E74906B6D4111C0831884649468B
:100FF000C844A4B28D58B9E70248C7E73030002092
:101000003C2F002041800000FFFF0000FECFFFFFCB
:10101000F0B589B01A236A4653804B782D4D5A009B
:10102000D3189B00EB18061C18896B460C1C9A1CE5
:1010300001A90323FFF766FF002802D0002009B0B2
:10104000F0BD6378244FD800C0186B46800008308C
:1010500038185A8801A901F04FF9002827D0637881
:10106000D900CA189200BA185268002A30D11B4D14
:101070000322CB189B00FA506B465A886378D9003C
:10108000CB189B00FB185A60637801A9D800C018E0
:1010900080000830381801F03EF96378301CD90020
:1010A000C9188B00F91824223823A847C6E76278AC
:1010B00053009B189B00ED18AB7A9B07BED4D00061
:1010C00080188200B81800212422FBF771F8B5E7D8
:1010D000034DCDE73C2F0020303000205DE80100BB
:1010E000EDE80100021C38B54B780C4CD800C01854
:1010F00083000D1CE018111C38232422FDF73EFC50
:10110000002807D16B78DA00D3189B00E3185A68DF
:10111000013200D038BD5860FCE7C04630300020B6
:10112000F0B557464E464546E0B44C4F90B03C684B
:10113000002C49D0189C742C46D81E1C484B924653
:1011400001936A46002308948846814613740996E1
:101150000024444D02E00134072C11D0A1B2281C18
:1011600002AAFDF74FFB0028F5D1484602A9082244
:1011700001F0C2F80028EED1E4B201ADAC7003E09A
:1011800001ADAC78FF2C1FD04346032B2DD0364B3E
:10119000F31AC32B1ED9354BF31A1B2B30D800235F
:1011A0006B700AAB09931823089308334246022A4E
:1011B0004FD0022213436A46137407AB0593281CD1
:1011C0003B6804A95246984710B01CBC904699460B
:1011D000A246F0BD53462649002B0BD00B680122D6
:1011E000A24093430B602023E0E7189B742B2ED082
:1011F0004323E0E70122A2400B681342E4D0EEE76C
:101200001C48331A232B0FD91B4B9E42F0D01B4B8B
:10121000A200D3589E42D7D1194BDA7A4023A2427A
:10122000C4D100226A70C1E730236A4613740023D8
:101230006B700133EB70124B9A7A30239207B5D45E
:1012400000212422FAF7B4FF6B461B7CAEE7232370
:10125000B1E7012213436A461374AEE75830002009
:1012600000FFFFFF0C300020482F0020143000202A
:101270005430002030300020B8250200182F002004
:101280003C2F0020021C38B54B780C4CD800C018FD
:1012900083000D1CE018111C38232422FDF76EFB7F
:1012A000002807D16B78DA00D3189B00E3185A683E
:1012B000013200D038BD5860FCE7C0463030002015
:1012C000334AF8B54F46914646464946C0B443783E
:1012D000071CDA00D218920089184C68002C0DD037
:1012E00058002C4EC11889007118897A4DB2002D12
:1012F00044DB002200250024904605E00022002562
:1013000000249046234E5800C3189B00F3181889F8
:101310004146221C2B1CFFF7F3FD0B280CD00028A4
:1013200003D1012D13D0002002E0012D0FD01A4867
:101330000CBC90469946F8BD7B7841465A00D318BC
:101340009B00F3181889221C0123FFF7D9FD7B7835
:101350000C215A00D3189B00F61830890F4AFFF76A
:10136000CDFD0028DFD002220D4BC3189343DED001
:101370000828DCD01128DAD00020D9E74906B8D4F3
:10138000111C083188464946C844A4B28D58BBE7B1
:10139000303000203C2F002041800000FFFF000083
:1013A000FECFFFFFF0B589B01A236A4653804B7811
:1013B0002D4D5A00D3189B00EB18061C18896B465C
:1013C0000C1C9A1C01A90323FFF79CFD002802D0E6
:1013D000002009B0F0BD6378244FD800C0186B46D8
:1013E0008000083038185A8801A900F085FF0028CD
:1013F00027D06378D900CA189200BA185268002A18
:1014000030D11B4D0322CB189B00FA506B465A88F3
:101410006378D900CB189B00FB185A60637801A948
:10142000D800C01880000830381800F074FF6378C6
:10143000301CD900C9188B00F91824223823A8477A
:10144000C6E7627853009B189B00ED18AB7A9B07A8
:10145000BED4D00080188200B81800212422FAF7E8
:10146000A7FEB5E7034DCDE73C2F0020303000202C
:101470005DE80100EDE80100F0B55F4656464D46D7
:101480004446F0B487B0002800D174E00022424BFB
:1014900001261A605A729A72012301903F487642DF
:1014A0008372002107320681C672FAF781FE3C483A
:1014B00000212422FAF77CFE3A4B002500931C1CE5
:1014C000394BFF279846394B9B46394B9A460123A7
:1014D0009946201C002106221130FAF769FE201CD3
:1014E00000211022FAF764FE4B464246AB401268D8
:1014F00059469A43131C424613600022AB00CA505F
:1015000053465E5501352774A77626831C34072D74
:10151000DFD1742302AA274E9380274B101C311C65
:10152000D5800293FDF7F8F800281DD10123234F41
:101530003B70019B1B78002B1FD10025A9B2301CEA
:1015400004AAFDF75FF9041E21D1009804A91C220A
:101550000023FDF713FA00281CD1009B01351C3332
:101560000093072DEAD1002007B03CBC9046994675
:10157000A246AB46F0BD1248F6E702AB02AADB88F2
:101580009188301C594389B2FDF752FAECE70023E9
:101590003B70E9E73C70E7E7583000203C2F002023
:1015A00030300020482F002054300020182F002019
:1015B000342F00200C300020211102003B2F00208E
:1015C0000E800000F8B5194B1B78002B01D118488C
:1015D000F8BD00280AD0002908D00B68002B05D0E0
:1015E000144E3768002F03D01348F1E71348EFE794
:1015F000051C301C0C1C08C00531052200F08BFEB8
:10160000012223790421B372337AF07993430222C1
:101610001343DBB28B43337201230343DBB21A4320
:10162000D2B28A43F27100202F70D1E73B2F002005
:101630000880000058300020048000000E80000068
:1016400010B582B0041C81786A460D48FDF7DAF8BF
:10165000002812D160786946C300181A094B80002F
:1016600018181C221C23FDF789F9074B074A9B7A9F
:1016700068469B009B58211C984702B010BDC0468D
:101680000C30002014300020583000209825020033
:10169000F0B55F4656464D464446FF23F0B4C84A6F
:1016A0008FB012780393002A44D0C64A904612683D
:1016B0009446002A3ED004AD05AE6B70AB70EB7063
:1016C000031D73602A23002233810388041C2A70BF
:1016D000102B00D133E1FF21BB4F8088BA7A8A46B4
:1016E000910707D5B949884200D122E13989814261
:1016F00000D11EE1113B9BB2412B1BD8B4499B008A
:10170000CB589F461323337000239B46281C311C63
:101710005A46E0473378122B0CD1BB7A012B09D003
:101720000123BB72023B3B81FB72381C0021072264
:10173000FAF73EFD0FB03CBC90469946A246AB4638
:10174000F0BD43469B7AA34A9B009B58281C9847B0
:10175000F0E70223111C08249943B972144000D108
:101760004AE14BB2002B00DA78E21023BB7202335D
:10177000337000239B46C9E7132333700423F97A9F
:101780001A43BA72FF2900D179E116239248002149
:101790001A2208303370FAF70BFD4023BA7AF97A2F
:1017A0001343BB7200239B468C4B9946CB00591ABE
:1017B0008B4B002208934346890049440B920C91BD
:1017C0000D9209920A92A0881A1D002108ABFFF71A
:1017D00091FB0028AED143461B689C4696E7FB7AF6
:1017E000FF2B00D1A9E17D4B7D4999464A46002354
:1017F000FFF782FB9EE7434601215B7A89468B43D4
:1018000041464B72042114238A43BA723370A37980
:10181000002B00D021E10020E3798346194200D15A
:1018200074E75346FF2B00D170E708231A43E37A8D
:10183000BA729B070AD5534652464946DB009B1AAB
:10184000664A9B00D3189A7E8A439A76FB7AFF2BCE
:1018500000D159E73B78022B00D140E25F4B524662
:1018600099465346DB009B1A39689B004B4419612B
:10187000B9889A7E9982B979997502218A439A76B4
:101880006A46534608AC938091885648221CFCF760
:10189000B9FF002833D16B785A00D3189B00FB188E
:1018A0009B7A5B0600D517E24F4B9A46A978201C1D
:1018B000CB00591A890049441C220023D047002834
:1018C00011D1697840304B005B189B00FB189A7A65
:1018D00082439A72CB00591A8B004149201CC918C7
:1018E0001C221C23D0472B78201C5A00D3189B00A5
:1018F00043449B7A3D4A9B009B58291C984743468A
:101900001B689C4600239B4600E7A379112B02D15C
:10191000130700D5FEE080235B421A4395333370F2
:101920004346BA729B7A2B4A9B009B58281C9847C7
:10193000E5E7F97A8A46A97000216970DAE60121A3
:10194000214F8A46BB7A194200D1F3E60223BB72CB
:101950000F336A703370838807223B81831D191C03
:10196000381C994600F0D7FC5246637D1A4200D1DC
:10197000AEE01F4A5B08D35CFF2B00D14BE10A228B
:10198000039399B2BA72FB72164808AAAB70FCF7BF
:1019900039FF0028B3D1687808A9C300181A83005A
:1019A0000F481C22C0181C23FCF7E8FF43469B7A13
:1019B000104A9B009B5808A8291C98479FE7C046DF
:1019C0003B2F0020583000203C2F0020FFFF00005C
:1019D00080240200A825020030300020482F00207B
:1019E000143000200C3000205DE801008825020042
:1019F000342F0020982502005346FF2B00D1B4E677
:101A0000CD4B52469B465346DB009B1A9B009946A2
:101A1000584648440021D94406221130FAF7C8FB41
:101A2000002110224846FAF7C3FBFF234A461374ED
:101A3000937601224B46524250461A83012383403B
:101A4000BE49AA7008689843534608609900BC4B89
:101A5000CC5043461B689C4687E66A46FB7AB948E9
:101A60009380918808AA9A46FCF7CCFE002800D102
:101A70009CE0A3799B4643461B689C4646E6AE4BDA
:101A800099469B7EFF2B00D142E136234A46D35C28
:101A9000FF2B00D13AE15223D35CFF2B00D13BE175
:101AA0006E23D35CFF2B00D134E18A23D35CFF2B60
:101AB00000D133E1A623D35CFF2B00D1AEE0C223DB
:101AC000D35C0622FF2B00D1A9E09F4B9B466DE61D
